:100000000C942A000C9447000C9447000C94470071
:100010000C9447000C9447000C9447000C94470044
:100020000C9447000C9447000C9447000C94470034
:100030000C9447000C9447000C9447000C94470024
:100040000C9447000C9447000C9447000C94470014
:100050000C94470011241FBECFE5D8E0DEBFCDBF12
:1000600010E0A0E6B0E0EAE0F5E002C005900D92F5
:10007000A43AB107D9F710E0A4EAB0E001C01D929C
:10008000A63AB107E1F70E947C010C9483020C941C
:1000900000008FEE82BB24EC39E0C9010197F1F733
:1000A000809905C0C9010197F1F787E30895819907
:1000B00005C0C9010197F1F788E30895829905C049
:1000C000C9010197F1F789E30895839905C0C90132
:1000D0000197F1F783E408958FED82BBC901019781
:1000E000F1F7809905C0C9010197F1F784E30895FC
:1000F000819905C0C9010197F1F785E308958299B7
:1001000005C0C9010197F1F786E30895839905C0F9
:10011000C9010197F1F782E408958FEB82BBC90111
:100120000197F1F7809905C0C9010197F1F781E3C3
:100130000895819906C084EC99E00197F1F782E374
:100140000895829906C084EC99E00197F1F783E362
:100150000895839906C084EC99E00197F1F781E452
:1001600008958FE782BB24EC39E0C9010197F1F7CC
:10017000809905C0C9010197F1F78AE20895819934
:1001800005C0C9010197F1F780E30895829905C080
:10019000C9010197F1F783E20895839B02C081E6CC
:1001A0000895C9010197F1F784E408950E94490078
:1001B0008136E1F3089588E38BBB94E098BB2AEF86
:1001C00030E0F9013197F1F718BA64ED70E3FB0103
:1001D0003197F1F7F9013197F1F7E1E0EBBB98BB0B
:1001E000D9011197F1F718BADB011197F1F7D9018D
:1001F0001197F1F78FE08BBB98BBD9011197F1F7FD
:1002000018BADB011197F1F744EC59E0DA011197C4
:10021000F1F782E88BBB98BBD9011197F1F718BAB7
:10022000DB011197F1F7DA011197F1F789E88BBB40
:1002300098BBD9011197F1F718BADB011197F1F7C3
:10024000DA011197F1F7EBBB98BBC9010197F1F700
:1002500018BACB010197F1F7CA010197F1F7089598
:100260008BBB84E088BB8AEF90E00197F1F718BA66
:1002700084ED90E30197F1F708958BBB85E088BB8F
:100280008AEF90E00197F1F781E088BB84ED90E37D
:100290000197F1F7089587E088BB8AEF90E0019716
:1002A000F1F783E088BB84ED90E30197F1F70895BF
:1002B0008BBB85E088BB8AEF90E00197F1F781E086
:1002C00088BB84ED90E30197F1F70895FC0175E098
:1002D0004AEF50E061E024ED30E30AC031968BBB79
:1002E00078BBCA010197F1F768BBC9010197F1F723
:1002F0008081882399F708952F923F924F925F92C1
:100300006F927F928F929F92AF92BF92CF92DF9225
:10031000EF92FF920F931F93CF93DF9344244A945D
:1003200070EF272E01E06AEFC62ED12C54EDE52E9A
:1003300050E3F52E49E1A42EB12C3AE2332E25E00C
:10034000522E9AEF692E712C84ED882E80E3982E20
:100350004ABA8FE087BB21BAA09A05BB84EC99E02A
:100360000197F1F70E94DB0080E690E00E946601B1
:1003700080EC8BBB84E088BBC6010197F1F718BA0B
:10038000C7010197F1F7C4EAD0E00E94D60020E14E
:1003900037E2F5013197F1F721503040D1F73BBA00
:1003A00058BAF6013197F1F708BBF7013197F1F729
:1003B000899380E0C93AD80741F781E08BBB84E09C
:1003C00088BBC3010197F1F718BAC4010197F1F78F
:1003D0008091A400813309F071C08091A50082331F
:1003E00009F06CC08091A600833309F067C080914A
:1003F000A700843309F062C08091A800853309F01A
:100400005DC08FE690E00E946601A09A15BA80E573
:1004100093ECF5013197F1F70197D9F715BA0BBBBA
:1004200014E018BBC6010197F1F718BAC70101978C
:10043000F1F780E88BBB18BBC6010197F1F718BA3A
:10044000C7010197F1F780E890E00E94660180EC17
:100450008BBB18BBC6010197F1F718BAC70101970A
:10046000F1F70E94D60020E137E2F5013197F1F76C
:1004700021503040D1F78BBB58BAF6013197F1F7D4
:1004800008BBF7013197F1F78093A500813331F56F
:100490000BBB84E088BBC6010197F1F718BAC7010E
:1004A0000197F1F78EE890E00E94660180E197E203
:1004B000F5013197F1F70197D9F74ACF85E990E037
:1004C0000E94660144BA83E085BB80E395E7F501AD
:1004D0003197F1F70197D9F715BA3ACF80E090E05C
:1004E000DF91CF911F910F91FF90EF90DF90CF9010
:1004F000BF90AF909F908F907F906F905F904F9044
:0A0500003F902F900895F894FFCF6C
:10050A00454E5445522050415353574F524400438D
:10051A004F52524543542050415353574F5244006F
:10052A004C4F434B3F2050524553532031004C4FC0
:10053A00434B45440057524F4E472050415353575F
:04054A004F524400C8
:00000001FF
