:100000000C942A000C943E000C943C000C943C0090
:100010000C943C000C943C000C943C000C943C0070
:100020000C943C000C943C000C943C000C943C0060
:100030000C943C000C943C000C943C000C943C0050
:100040000C943C000C943C000C943C000C943C0040
:100050000C943C0011241FBECFE5D8E0DEBFCDBF1D
:1000600010E0A0E6B0E001C01D92A136B107E1F7B3
:100070000E9456000C945F000C9400001F920F9297
:100080000FB60F9211248F9380916000809580931A
:100090006000882311F0AF9803C080E884BBAF9A5A
:1000A0008F910F900FBE0F901F90189511BA88E096
:1000B00082BB80EC8BBF83E085BF7894FFCFF89440
:0200C000FFCF70
:00000001FF
