:100000000C942A000C943F000C943F000C943F0089
:100010000C943F000C943F000C943F000C943F0064
:100020000C943F000C943F000C943F000C943F0054
:100030000C943F000C943F000C943F000C943F0044
:100040000C943F000C943F000C943F000C943F0034
:100050000C943F0011241FBECFE5D8E0DEBFCDBF1A
:1000600010E0A0E6B0E0E0EBF6E002C005900D92F3
:10007000A238B107D9F70E9474000C9456030C946F
:1000800000008770806487B9369A349BFECF349A1B
:100090008AEF90E00197F1F784B195B1089588BB9C
:1000A0009698959A88E893E10197F1F782B3807C5E
:1000B00082BB18BA089588BB969A959A88E893E10E
:1000C0000197F1F782B3807C82BB18BA0895CF9371
:1000D000DF93EC0103C021960E945B008881882396
:1000E000D1F7DF91CF910895BF92CF92DF92EF9237
:1000F000FF920F931F93DF93CF9300D00F92CDB752
:10010000DEB71ABA9FEF97BB81E084BB91BB04EDC9
:1001100010E3C8010197F1F787E886B980E487B951
:1001200081E00E944F00C8010197F1F788E30E9427
:100130004F00C8010197F1F78FE00E944F00C801FE
:100140000197F1F7369A6E010894C11CD11CBB24AB
:10015000B39480E090E00E944100AA2797FDA0950B
:10016000BA2FBC01CD010E94FA0126EF38E24CE91A
:1001700050E40E948A0220E030E040E251E40E9414
:100180005F0120E030E040E251E40E94FA007B0190
:100190008C0180E690E00E94670080EC0E944F0096
:1001A00081E790E00E94670088EC0E944F00C80140
:1001B000B7010E94C701DC01CB01B6014AE050E063
:1001C0000E941103C6010E9467008AE790E00E9426
:1001D000670080E80E944F00C801B70120E030E0CE
:1001E00040E252E40E948602882314F0B5BAB1CFEF
:1001F00015BAAFCF5058BB27AA270ED04DC13ED15C
:1002000030F043D120F031F49F3F11F41EF433C19C
:100210000EF4E095E7FB29C1E92F4FD180F3BA171F
:10022000620773078407950718F071F49EF567C19C
:100230000EF4E0950B2EBA2FA02D0B01B901900101
:100240000C01CA01A0011124FF27591B99F0593F45
:1002500050F4503E68F11A16F040A22F232F342F8D
:100260004427585FF3CF469537952795A795F040DB
:100270005395C9F77EF41F16BA0B620B730B840BF0
:10028000BAF09150A1F0FF0FBB1F661F771F881FA8
:10029000C2F70EC0BA0F621F731F841F48F4879500
:1002A00077956795B795F7959E3F08F0B3CF9395EF
:1002B000880F08F09927EE0F9795879508950CD031
:1002C000EBC0E3D040F0DAD030F021F45F3F19F01A
:1002D000CCC0511115C1CFC0F0D098F39923C9F308
:1002E0005523B1F3951B550BBB27AA27621773073C
:1002F000840738F09F5F5F4F220F331F441FAA1FF0
:10030000A9F333D00E2E3AF0E0E830D091505040AF
:10031000E695001CCAF729D0FE2F27D0660F771F5D
:10032000881FBB1F261737074807AB07B0E809F03F
:10033000BB0B802DBF01FF2793585F4F2AF09E3FD4
:10034000510568F092C0DCC05F3FECF3983EDCF3EF
:10035000869577956795B795F7959F5FC9F7880F4D
:10036000911D9695879597F90895E1E0660F771F9F
:10037000881FBB1F621773078407BA0720F0621B30
:10038000730B840BBA0BEE1F88F7E095089504D029
:100390006894B111B5C0089598D088F09F5790F037
:1003A000B92F9927B751A0F0D1F0660F771F881F9A
:1003B000991F1AF0BA95C9F712C0B13081F09FD0D9
:1003C000B1E008959CC0672F782F8827B85F39F077
:1003D000B93FCCF3869577956795B395D9F73EF4F9
:1003E00090958095709561957F4F8F4F9F4F0895A1
:1003F000E89409C097FB3EF49095809570956195BF
:100400007F4F8F4F9F4F9923A9F0F92F96E9BB2774
:100410009395F695879577956795B795F111F8CFF0
:10042000FAF4BB0F11F460FF1BC06F5F7F4F8F4F5B
:100430009F4F16C0882311F096E911C0772321F051
:100440009EE8872F762F05C0662371F096E8862FE9
:1004500070E060E02AF09A95660F771F881FDAF740
:10046000880F9695879597F9089597F99F6780E883
:1004700070E060E008959FEF80EC089500240A94F6
:100480001616170618060906089500240A9412166F
:100490001306140605060895092E0394000C11F4A2
:1004A000882352F0BB0F40F4BF2B11F460FF04C04F
:1004B0006F5F7F4F8F4F9F4F089557FD9058440FA8
:1004C000551F59F05F3F71F04795880F97FB991FB3
:1004D00061F09F3F79F08795089512161306140670
:1004E000551FF2CF4695F1DF08C0161617061806FD
:1004F000991FF1CF86957105610508940895E894D8
:10050000BB2766277727CB0197F9089566D008F4B3
:100510008FEF08950BD0C0CFB1DF28F0B6DF18F011
:10052000952309F0A2CFA7CF1124EACFC6DFA0F30D
:10053000959FD1F3950F50E0551F629FF001729F78
:10054000BB27F00DB11D639FAA27F00DB11DAA1F97
:10055000649F6627B00DA11D661F829F2227B00DE4
:10056000A11D621F739FB00DA11D621F839FA00D6F
:10057000611D221F749F3327A00D611D231F849FBF
:10058000600D211D822F762F6A2F11249F57504016
:100590008AF0E1F088234AF0EE0FFF1FBB1F661FB1
:1005A000771F881F91505040A9F79E3F510570F06A
:1005B0005CCFA6CF5F3FECF3983EDCF38695779552
:1005C0006795B795F795E7959F5FC1F7FE2B880F65
:1005D000911D9695879597F90895990F0008550FE5
:1005E000AA0BE0E8FEEF16161706E807F907C0F0B9
:1005F00012161306E407F50798F0621B730B840BC1
:10060000950B39F40A2661F0232B242B252B21F49A
:1006100008950A2609F4A140A6958FEF811D811D3A
:100620000895FB019F01E8944230C4F04532B4F4D0
:100630004A3029F497FB1EF4909581959F4F642FC3
:1006400077270E944203805D8A330CF0895D819395
:10065000CB010097A1F716F45DE251931082C90116
:100660000C943203DC01FC01672F71917723E1F7D1
:10067000329704C07C916D9370836291AE17BF076F
:10068000C8F30895AA1BBB1B51E107C0AA1FBB1FDB
:10069000A617B70710F0A61BB70B881F991F5A950E
:1006A000A9F780959095BC01CD010895F894FFCFEE
:1006B000524F4F4D2054454D50455241545552458F
:1006C0000054454D502843293D0020202020202063
:0206D000000028
:00000001FF
